:020000040800F2
:1000000000800120ED3F000831160008331600087B
:1000100035160008371600083916000800000000E1
:100020000000000000000000000000003B16000877
:100030003D160008000000003F16000841160008A9
:100040003D4000083D4000083D4000083D4000089C
:100050003D4000083D4000083D4000083D4000088C
:100060003D4000083D4000083D4000083D4000087C
:100070003D4000083D4000083D4000083D4000086C
:1000800049160008591600083D4000083D40000888
:100090003D4000083D4000083D4000083D4000084C
:1000A0003D4000083D4000083D4000083D4000083C
:1000B0003D4000083D4000083D4000083D4000082C
:1000C0003D4000083D4000083D4000083D4000081C
:1000D0003D4000083D4000083D4000083D4000080C
:1000E0003D4000083D4000083D4000083D400008FC
:1000F0003D4000083D4000083D4000083D400008EC
:100100003D4000083D4000083D4000083D400008DB
:100110003D4000083D4000083D4000083D400008CB
:100120003D4000083D4000083D4000083D400008BB
:100130003D4000083D4000083D4000083D400008AB
:100140003D4000083D4000083D4000083D4000089B
:100150003D4000083D4000083D4000083D4000088B
:100160003D4000083D4000083D4000083D4000087B
:100170003D4000083D4000083D40000800000000F0
:080180003D4000083D4000086D
:1001900010B5054C237833B9044B13B10448AFF3C1
:1001A00000800123237010BDC0000020000000006B
:1001B000B048000808B5034B1BB103490348AFF32F
:1001C000008008BD00000000C4000020B048000806
:1001D00053B94AB9002908BF00281CBF4FF0FF31AE
:1001E0004FF0FF3000F072B9ADF1080C6DE904CEAC
:1001F00000F006F8DDF804E0DDE9022304B0704702
:100200002DE9F047089E04468846002B4BD18A42D0
:10021000154667D9B2FA82F24AB1C2F1200701FA53
:1002200002F320FA07F7954047EA030894404FEAA3
:10023000154E230CB8FBFEF71FFA85FC0EFB178842
:1002400043EA084307FB0CF1994209D9EB1807F17F
:10025000FF3080F01B81994240F21881023F2B440D
:100260005B1AA4B2B3FBFEF00EFB103344EA034466
:1002700000FB0CFCA44509D92C1900F1FF3380F0D8
:100280000781A44540F2048102382C4440EA07402B
:10029000A4EB0C0400271EB1D4400023C6E90043A0
:1002A0003946BDE8F0878B4209D9002E00F0EB807B
:1002B0000027C6E9000138463946BDE8F087B3FAA1
:1002C00083F7002F47D18B4202D3824200F2FA809B
:1002D000841A61EB030301209846002EE0D0C6E9A2
:1002E0000048DDE702B9FFDEB2FA82F2002A40F0F0
:1002F0008F80491B4FEA154E1FFA85F80127B1FB85
:10030000FEFC230C0EFB1C1143EA014308FB0CF11D
:10031000994207D9EB180CF1FF3002D2994200F252
:10032000CD808446591AA3B2B1FBFEF00EFB101427
:1003300043EA044408FB00F8A04507D92C1900F152
:10034000FF3302D2A04500F2B6801846A4EB0804A1
:1003500040EA0C409FE7C7F1200CBB4022FA0CFE9C
:100360004EEA030E01FA07F420FA0CF521FA0CF319
:100370004FEA1E482543B3FBF8F92C0C08FB193350
:100380001FFA8EFA44EA034309FB0AF49C4202FA7C
:1003900007F200FA07F10BD91EEB030309F1FF3056
:1003A00080F087809C4240F28480A9F10209734466
:1003B0001B1BADB2B3FBF8F008FB103345EA034456
:1003C00000FB0AFAA24508D91EEB040400F1FF3332
:1003D0006BD2A24569D90238744440EA0940A0FBB7
:1003E0000289A4EB0A044C45C2464B4654D351D073
:1003F000002E69D0B1EB0A0564EB030404FA0CFC8F
:10040000FD40FC404CEA0505C6E90054002747E7DB
:10041000C2F1200320FA03F7954001FA02F021FA15
:1004200003F34FEA154E3843010CB3FBFEF71FFAF6
:1004300085F80EFB173341EA034107FB08F38B42B3
:1004400004FA02F407D9691807F1FF3C2FD28B4256
:100450002DD9023F2944CB1A81B2B3FBFEF00EFB2B
:10046000103341EA034100FB08F38B4207D96918B6
:1004700000F1FF3C17D28B4215D902382944C91A22
:1004800040EA07473BE73746304609E70746E7E6D5
:100490001846FBE64145ABD2B8EB020A69EB0E0207
:1004A00001381346A4E76046E9E7184695E7674632
:1004B000D1E781467CE702382C4447E7ACF1020CD7
:1004C0002B442FE7384608E73746E9E6704700BF78
:1004D00001F0FF01102A2BDB10F0070F08D010F8F5
:1004E000013B013A8B422DD010F0070F42B3F6D1F9
:1004F000F0B441EA012141EA014122F007047FF012
:1005000000070023F0E80256083C85EA010586EA68
:10051000010685FA47F5A3FA87F586FA47F6A5FAA4
:1005200087F68EB9EED1F0BC01F0FF0102F00702B0
:1005300032B110F8013B013A83EA010313B1F8D15B
:100540000020704701387047002D06BF354603383C
:10055000073815F0010F07D1013015F4807F02BF75
:10056000013015F4C03F0130F0BC0138704700BFC6
:1005700008B589B280B200F0FDF908BD10B582B0AF
:10058000BDF8104000949BB292B289B280B200F0E4
:100590001DFA02B010BD08B5FFF7EAFF08BD2DE94E
:1005A000F04F87B007460E4602929846019395B2E7
:1005B000C5F1010424B2C5EBC53253001AB205924D
:1005C0001FFA81FB05EB0B01424609B2FFF7E3FF7F
:1005D000ABEB0501424609B23846FFF7DCFFBFB27C
:1005E000E8194246314600B2FFF7D5FF781B424674
:1005F000314600B2FFF7CFFF4FF0000A012303930B
:1006000053E00AF10105ADB20FFA85FA039B0233FC
:100610009BB21AB203921C4424B27B191BB2BDF8E0
:1006200008600BEB06090FFA89F9019A4946049311
:100630001846FFF7B0FFA7EB05080FFA88F8019AF4
:1006400049464046FFF7A7FFABEB06090FFA89F9C9
:10065000019A49460498FFF79EFF019A4946404691
:10066000FFF799FF07EB06080FFA88F80BEB05096F
:100670000FFA89F9019A49464046FFF78CFFBE1BE5
:1006800036B2019A49463046FFF785FFABEB0505C8
:100690002DB2DDF804904A4629464046FFF77BFF1D
:1006A0004A4629463046FFF776FF029B9A450DDA07
:1006B000002CA6DB029B013B1BB20293059B02337D
:1006C0009BB21AB205921C4424B29AE707B0BDE867
:1006D000F08F000000B583B0064BB3F90030064A36
:1006E000B2F90020009000210846FFF747FF03B051
:1006F0005DF804FB580100205401002008B50022D9
:100700004021024801F07AFA08BD00BF0004004809
:1007100008B501224021024801F070FA08BD00BF6F
:100720000004004810B5074C00228021204601F04B
:1007300065FA052001F022F801228021204601F00F
:100740005DFA10BD0008004810B582B002AC04F894
:10075000010D00224FF400714FF0904001F04EFA6D
:100760004FF0FF3301222146024802F0A3FF02B0FE
:1007700010BD00BF040D002038B504460D4601220F
:100780004FF400714FF0904001F038FA4FF0FF3312
:10079000AAB22146014802F08DFF38BD040D0020A9
:1007A000F8B5461C02780AE039462046FFF7E4FF18
:1007B0003C4410E000F0E2FF34462A462646531E31
:1007C000DDB292B1344614F8020BFFF7BDFF767824
:1007D00016F07F07E8D116F0800FEED0661C207867
:1007E000FF28E7D14FF4FA70E4E7F8BDF0B583B025
:1007F00005460C4617461E462A20FFF7A5FF002394
:100800008DF80430114A127815448DF805508DF892
:1008100006303A448DF8072004210DEB0100FFF764
:10082000ABFF2B20FFF790FF094B1B781C448DF882
:10083000054033448DF8073004210DEB0100FFF72C
:100840009BFF2C20FFF780FF03B0F0BD4C01002080
:100850005001002000B583B000238DF8073000F070
:1008600003002B4B1870032813D8DFE800F0022197
:100870003240C0238DF807308023264A1380264A51
:100880001380264B1A78264B1A70264B1A78264B63
:100890001A70FFF733FF3620FFF756FF01210DF1E5
:1008A0000700FFF769FFFFF733FF03B05DF804FBB4
:1008B000A0238DF807308023174A1380154A138030
:1008C000164B1A78184B1A70164B1A78144B1A706C
:1008D000DFE780230F4A13800F4A13800F4B1A78EB
:1008E0000F4B1A700F4B1A780F4B1A70D1E7602319
:1008F0008DF807308023084A1380064A1380074B7F
:100900001A78094B1A70074B1A78054B1A70C0E712
:100910005201002058010020540100204D01002008
:100920004C010020510100205001002038B505463F
:10093000FFF7E4FEFFF7F6FE0B4C2046FFF730FF13
:1009400004F13800FFF72CFF04F14800FFF728FFFF
:10095000064B02221A70064B03221A702846FFF734
:1009600079FFFFF7D5FE38BDC84800084D010020CB
:1009700051010020134BB3F90030984204DA124BB6
:10098000B3F90030994200DB704770B582B016466B
:100990000D460446FFF7B2FEE0B2E9B24B1C421C22
:1009A000DBB2D2B2FFF722FF330A8DF804308DF8A4
:1009B0000560022101A8FFF7DFFEFFF7A9FE02B0E4
:1009C00070BD00BF54010020580100202DE9F04106
:1009D00082B01D46BDF82080254BB3F90030984207
:1009E00043DA04460F461646224AB2F900209142E5
:1009F0003BDA311801398B4202DC9EB2361AB6B2AC
:100A0000EB19013B9A4202DC95B2ED1BADB2FFF748
:100A100075FEE0B2F9B28219D2B24B19DBB2013BDA
:100A2000013ADBB2D2B2FFF7E1FE4FEA18238DF8AC
:100A300004308DF8058001224FF400714FF0904092
:100A400001F0DCF80CE04FF0FF33022201A90A4864
:100A500002F030FE013CA4B2002CF4D1013DADB255
:100A60000DB13446F8E7FFF753FE02B0BDE8F08160
:100A70005401002058010020040D00202DE9F0430E
:100A80008DB005464FF03D098DF82C904FF00008D1
:100A90008DF82D800A24009402230BAA502101F026
:100AA00039FA204600F06AFE4A4B1B880CAA22F84D
:100AB000083D009402235021284601F02BFA2046DD
:100AC00000F05CFE08238DF82430434F3A78434E03
:100AD00033789B0043EA42135BB2727813438DF87C
:100AE00025300094022309AA5021284601F012FA69
:100AF000204600F043FE8DF82040B2787B7843EA30
:100B0000C2038DF821300094022308AA5021284600
:100B100001F000FA204600F031FE0B238DF81C3066
:100B2000BB788DF81D300094022307AA5021284677
:100B300001F0F0F9204600F021FE8DF8188009231D
:100B40008DF8193001238DF81A30FA78F378DB002C
:100B500043EA42135BB2327913438DF81B300094A1
:100B6000042306AA5021284601F0D4F9204600F0BB
:100B700005FE07238DF814308DF8158000940223AC
:100B800005AA5021284601F0C5F9204600F0F6FDDF
:100B90003E238DF810303B798DF8113000940223FC
:100BA00004AA5021284601F0B5F9204600F0E6FDE0
:100BB0008DF80C9073798DF80D300094022303AA00
:100BC0005021284601F0A6F9322000F0D7FD0DB0E3
:100BD000BDE8F0833C490008DC0000200000002054
:100BE00000B585B064230293122301930091012381
:100BF0000822502101F04CFA05B05DF804FB00001A
:100C0000F0B589B0002403940494059406940794E5
:100C1000274BDA6C42F00102DA64DA6C02F001026E
:100C20000092009ADA6C42F00402DA64DA6C02F0A4
:100C300004020192019ADA6C42F00202DA64DB6C7F
:100C400003F002030293029B1A4F2246802138468A
:100C500000F0D4FF22464FF400714FF0904000F0B6
:100C6000CDFF154E22464021304600F0C7FF8023BD
:100C70000393012504950594069403A9384600F0D2
:100C8000D9FE4FF40073039304950594069403A9C9
:100C90004FF0904000F0CEFE40230393049505945E
:100CA000069403A9304600F0C5FE09B0F0BD00BFB0
:100CB00000100240000800480004004800B583B05E
:100CC0000E4B9A6C42F001029A649B6C03F0010394
:100CD0000193019B00221146102000F075FD1020A9
:100CE00000F0A6FD00221146112000F06DFD11203C
:100CF00000F09EFD03B05DF804FB00BF0010024051
:100D0000F0B587B00025D2E06D4E73695B42736128
:100D100004EB44039E00B42303FB0566694B334494
:100D200000269E6000960FFA8CF312B209B200B250
:100D3000FFF724FC644A1368013313600134604BED
:100D4000DB69A34240F3B28004EB44039A00B4236E
:100D500003FB05225B4B134493E8070006AB03E952
:100D60000700059B012BE9D1554A13685768D9192B
:100D70000398814210DB92688618B1420CDC04991A
:100D80004F4EF668B14207DADFF834C1DCF810C024
:100D900001EB0C0E7645B7DBD91B884211DC484AC3
:100DA00092688618B1420CDC0499454EF668B1424F
:100DB00007DADFF80CC1DCF810C001EB0C0E764549
:100DC0003EDB3F4AD668BA1904998A420FDBDFF846
:100DD000F0C0DCF810C001EB0C0E724507DC83425A
:100DE00005DD374A926800EB020E734543DBF61BC4
:100DF000B142A3DC324A1769CA1996429EDC83428B
:100E00009CDD2F4A92688618B34297DA2C4EB3695C
:100E10005B42B36104EB44039E00B42303FB05660D
:100E2000284B334400269E6000963BB212B209B2B2
:100E300000B2FFF7A3FB244A1368013313607DE778
:100E40001F4E73695B42736104EB44039E00B4233D
:100E500003FB05661B4B334400269E6000960FFA89
:100E60008CF312B209B200B2FFF788FB164A13687E
:100E70000133136062E7124EB3695B42B36104EB66
:100E800044039E00B42303FB05660E4B3344002647
:100E90009E6000960FFA8CF312B209B200B2FFF70F
:100EA0006DFB094A13680133136047E70135044BB2
:100EB0001B6AAB4201DD002441E707B0F0BD00BF73
:100EC0000C00002030020020E800002030B52DED9D
:100ED000028B89B062E0B8EE007AF4EEC77AF1EEE8
:100EE00010FA21D59D4B93ED027AF8EE007AB4EE1C
:100EF000E77AF1EE10FA17D593ED037AB4EEE77ABC
:100F0000F1EE10FA10D593ED047AB4EEE77AF1EE33
:100F100010FA09D5B4EEE78AF1EE10FA04D5904B39
:100F2000586A002880F2B1808C4BDA681A619A689E
:100F3000DA605A689A6083ED018AFFF7E1FE884C17
:100F400000230422B4F90C10B4F90000FFF727FBCA
:100F5000E16863680B44226B023A934200F0B4806C
:100F6000002B40F3C0807E4B1868431F762B03D9BB
:100F70007B4A53695B425361794C63691844206032
:100F8000A3691944E16040F2FF73042209B200B280
:100F9000FFF705FBE3687B2B00F3DB800023039363
:100FA000049305930693ADF81C3003A96D48FFF731
:100FB00017FE9DF80F209DF80E3043EA02231BB266
:100FC00007EE903AF8EEE77A9FED677A87EE878A28
:100FD000DFED667AB4EEE78AF1EE10FAADD5DFED1B
:100FE000647AB4EEE78AF1EE10FAA6DD5B4BD3ED3E
:100FF000017AB0EE007AF4EEC77AF1EE10FA7FF7DC
:101000006AAFD3ED026AF4EEC76AF1EE10FA7FF729
:1010100062AFD3ED036AF4EEC76AF1EE10FA7FF720
:101020005AAFD3ED046AB0EE087AF4EEC76AF1EE77
:1010300010FA7FF750AFB0EE007AB4EEC78AF1EE47
:1010400010FA7FF748AF464B586A62283FF76CAFFB
:1010500005301C46B3F92830B4F92C20B4F930100F
:101060004FF4FC65009500B2FFF788FAB4F9283018
:10107000B4F93010B4F92400002200920522FFF7E1
:101080007DFA636A053363624EE705381C46B3F99F
:101090002830B4F92C20B4F930104FF4FC650095D9
:1010A00000B2FFF76BFA636A03F11D00B4F9283050
:1010B000B4F9301000220092052200B2FFF75EFA68
:1010C000636A053B63622FE72046626AA2F1080467
:1010D00000688442BFF644AF214CE46A22440832DF
:1010E0009042BFF63DAF1E4B9A6952429A615A6ACE
:1010F000A2F108041868844211DADC6A1D4B83FBF4
:101100000453A3EBE4731344984208DA144B5B696D
:10111000012B7FF728AF013B114A536123E7104BA6
:10112000DC6A144B83FB0453A3EBE47302EB43032D
:1011300098427FF718AF224408329042BFF613AFAF
:10114000074B5B69052B3FF70EAF0133044A536130
:1011500009E709B0BDEC028B30BD00BFE8000020FC
:101160000C000020A40100200000C84200004843F9
:10117000000048C356555555074B32221A605A2273
:10118000DA6002225A619A613C225A6278221A631A
:10119000024B00221A6070470C000020E80000207B
:1011A00072B6FEE708B51148114B036040F61463B0
:1011B0004360002383600122C26003614361836155
:1011C000C361036200F048FE50B90021074801F0F6
:1011D00035F838B90021054801F05EF820B908BD9E
:1011E000FFF7DEFFFFF7DCFFFFF7DAFFA4010020C7
:1011F0000054004008B50F480F4B03604FF4827352
:101200004360002383604FF4E062C2600361436186
:101210004FF400728261C3610362436283620722FA
:10122000C26203630823436302F0D5F900B908BD25
:10123000FFF7B6FF040D00200030014008B50B4851
:101240000B4B03604FF4E133436000238360C360C2
:1012500003610C2242618361C3610362436202F055
:1012600093FE00B908BDFFF79BFF00BF680D00208B
:101270000044004000B5B9B04022002128A802F087
:1012800009FF002122912391249125912691882202
:10129000684602F0FFFE1023279301232D9360235D
:1012A0002F9327A801F016F9D8B90F232293002114
:1012B000239124912591269122A801F027FC90B931
:1012C0004223009300230F931493684601F052FECB
:1012D00058B94FF4007001F013F840B939B05DF817
:1012E00004FBFFF75DFFFFF75BFFFFF759FFFFF719
:1012F00057FF0000F0B585B000F01EFAFFF7BAFF07
:10130000FFF77EFCFFF7DAFCFFF74CFFFFF772FFF9
:101310000020FFF70BFBFFF791FF4748FFF7AEFBFD
:1013200085E0464DAA68696B5018AB6B04FB003032
:101330000430DFF81CC1670027444FEA870EB4234E
:1013400003FB06E30CEB03074CF803002B6919447D
:10135000ED6B06FB015179600125BD604FF6E0752C
:1013600000951BB212B209B200B2FFF707F90134BF
:10137000324BDB69A342D4DC0136304B1B6AB342EB
:1013800001DD0024F4E72D48B0F92830B0F92C2015
:10139000B0F93010B0F924004FF4FC640094FFF76A
:1013A000EDF840F2FF7304225A213220FFF7F7F8DC
:1013B00000238DF80F3007E04FF47A7301220DF10E
:1013C0000F011F4802F01BFD9DF80F30002BF3D0DA
:1013D000FFF77CFD1B4F3C4654F8142B1A4920465E
:1013E00002F060FE194D543726460FCE2860696022
:1013F000AA60EB6034461035BE42F5D14FF47A73E3
:10140000402212490E4802F08EFC00238DF80F3066
:1014100007E04FF47A7301220DF10F01084802F042
:10142000EEFC9DF80F30002BF3D0FFF7A5FE002057
:10143000FFF750F90026A0E7A40100200C000020CF
:10144000680D0020E800002098490008F001002005
:101450003002002082B00A4B1A6E42F001021A6676
:101460001A6E02F001020092009A9A6D42F08052C8
:101470009A659B6D03F080530193019B02B0704706
:101480000010024070B588B00023039304930593C5
:101490000693079302682B4B9A4201D008B070BDA7
:1014A0000446294DEB6C43F00203EB64EB6C03F054
:1014B00002030193019B4FF440730393122304939F
:1014C00001230593032606960423079303A91F48C7
:1014D00000F0B0FAAB6D43F40013AB65AB6D03F4F1
:1014E00000130293029B1A481A4B036046600023C4
:1014F0008360C3608022026143618361C3610362D0
:1015000000F0BAF9C0B9124BE3639C621248134B66
:10151000036003234360102383600023C3608022A1
:10152000026143618361C361036200F0A5F930B9D0
:10153000094BA3639C62B1E7FFF732FEE3E7FFF7D5
:101540002FFEF5E700540040001002400004004860
:10155000BC0C0020800002405C0100206C000240B6
:1015600000B589B000230393049305930693079372
:101570000268144B9A4202D009B05DF804FB03F5EF
:1015800060431A6E42F480521A661A6E02F4805258
:101590000192019ADA6C42F00102DA64DB6C03F02A
:1015A00001030293029BA0230393022304930323CA
:1015B00006930523079303A94FF0904000F03AFAF1
:1015C000DAE700BF0030014000B589B00023039383
:1015D00004930593069307930268144B9A4202D032
:1015E00009B05DF804FB03F5E6339A6D42F400326E
:1015F0009A659A6D02F400320192019ADA6C42F017
:101600000102DA64DB6C03F001030293029B0C23FA
:10161000039302230493032306930723079303A949
:101620004FF0904000F006FADAE700BF00440040B7
:10163000FEE7FEE7FEE7FEE7FEE77047704770470C
:1016400008B500F089F808BD08B5024800F090F927
:1016500008BD00BF5C01002008B5024800F088F911
:1016600008BD00BFBC0C002008B503460B4A126839
:1016700042B10A4A106803446A46934206D8074AB0
:10168000136008BD054A06491160F2E702F0D8FC74
:101690000C2303604FF0FF30F3E700BF3C01002054
:1016A000F00D00200F49D1F8883043F47003C1F8E1
:1016B00088300D4B1A6842F001021A6000209860D1
:1016C0001A6822F0A85222F410221A604FF48052B5
:1016D000DA601A6822F480221A6098614FF0006381
:1016E0008B60704700ED00E000100240104B1B784B
:1016F0000BB90120704710B504464FF47A70B0FB67
:10170000F3F30C4A1068B0FBF3F000F09FF868B9EF
:101710000F2C01D901200AE0002221464FF0FF30B2
:1017200000F052F8024B5C60002000E0012010BD88
:10173000500000204C00002010B5032000F032F8CB
:101740000020FFF7D3FF10B10124204610BD04464E
:10175000FFF780FEF9E70000034B1B78034A11688E
:101760000B441360704700BF50000020E80D0020BC
:10177000014B1868704700BFE80D002038B50446DB
:10178000FFF7F6FF0546B4F1FF3F02D0044B1B788C
:101790001C44FFF7EDFF401BA042FAD338BD00BF49
:1017A00050000020074AD36823F4E0631B041B0C9D
:1017B000000200F4E060184340F0BF6040F40030E5
:1017C000D060704700ED00E030B4174BDB68C3F326
:1017D0000223C3F10704042C28BF04241D1D062D79
:1017E00018D9033B4FF0FF3505FA04F421EA040150
:1017F000994005FA03F322EA0303194300280BDB9F
:101800000901C9B200F1604000F5614080F80013A1
:1018100030BC70470023E5E700F00F000901C9B2B2
:10182000024B1954F4E700BF00ED00E014ED00E0B6
:10183000002807DB00F01F02400901239340024A01
:1018400042F82030704700BF00E100E00138B0F1FD
:10185000807F0AD2064B5860064AF02182F8231096
:101860000020986007221A6070470120704700BF6F
:1018700010E000E000ED00E0002869D010B403465D
:101880000168344A914245D8334A0A443349A1FB9E
:101890000212120992004264314A0264022283F861
:1018A00025201868016821F4FF4121F070019A6831
:1018B000DC6822431C6922435C6922439C69224301
:1018C000DC6922431C6A22430A4302609A68B2F52B
:1018D000804F15D0196C224A914226D0214A1168B6
:1018E000586C00F01C040F20A04021EA0001116098
:1018F000116858685C6C04F01C04A040014311603E
:101900000020D863012283F8252083F824005DF8A5
:10191000044B7047144A0A441049A1FB02121209F1
:1019200092004264114A0264B8E7A8321168586C08
:1019300000F01C040F20A04021EA00011160116892
:1019400058685C6C04F01C04A04001431160D7E7A8
:101950000120704707040240F8FFFDBFCDCCCCCC7E
:1019600000000240A8040240F8FBFDBF0004024052
:1019700038B5036C196804682568436C03F01C03D0
:1019800004229A400A4215D015F0040F12D02368A1
:1019900013F0200F03D1236823F004032360436C6A
:1019A00003F01C02016C042393404B60036B03B1F2
:1019B000984738BD02229A400A421CD015F0020F07
:1019C00019D0236813F0200F06D1236823F00A03EF
:1019D0002360012380F82530436C03F01C02016C66
:1019E000022393404B60002380F82430C36A002B0D
:1019F000DFD09847DDE7082202FA03F30B42D8D084
:101A000015F0080FD5D0236823F00E032360436C34
:101A100003F01C03016C012202FA03F34B60C26362
:101A200080F82520002380F82430436B002BC0D0A1
:101A30009847BEE7F0B583B000233FE0C66A26EAC8
:101A40000406C5F3C0049C403443C4625FE006242E
:101A500000E00024B4403C430235644E46F8254083
:101A6000634C2568D44304EA05064F6817F4803FA9
:101A700001D042EA05065E4D2E606D6804EA050657
:101A80004F6817F4003F01D042EA0506584D6E60DA
:101A9000AD6804EA05064F6817F4801F01D042EADA
:101AA0000506534DAE60ED682C404E6816F4001FDD
:101AB00001D042EA05044E4AD46001330A6832FA82
:101AC00003F400F0918001249C402240F5D04D6841
:101AD0006E1E012E03D9112D01D0122D12D1866850
:101AE0005F000325BD4026EA0506CD68BD403543AD
:101AF0008560466826EA04064D68C5F300159D40DA
:101B0000354345604D6805F00306032E96D0C56841
:101B10005F000324BC40E44325408E68BE402E4352
:101B2000C6604D68022D01D0122D13D1DE08083693
:101B300050F826E003F007054FEA850C0F2505FA5B
:101B40000CF52EEA050E0D6905FA0CF545EA0E05B1
:101B500040F8265005682C404D6805F00305BD404F
:101B60002C4304604C6814F0805FA6D0214C256E95
:101B700045F001052566246E04F001040194019CE2
:101B80009D08AE1C194C54F8267003F00304A600FF
:101B90000F24B44027EA0407B0F1904F3FF459AF47
:101BA000154CA04216D004F58064A04214D004F570
:101BB0008064A04212D004F58064A04210D004F5E5
:101BC0008064A0420ED004F58064A0423FF43FAF91
:101BD00007243FE701243DE702243BE7032439E7DC
:101BE000042437E7052435E703B0F0BD00000140C9
:101BF0000004014000100240000400480AB981625C
:101C000070478161704703689A6912F0020F01D032
:101C100000229A6203689A6912F0010F03D19A694F
:101C200042F001029A61704770B4039E05686868CB
:101C3000740D04F4806444F07F7444F4583444F424
:101C40007F7444F0030420EA0400C1F3090141EA6F
:101C50000241194331430143696070BC704770B55C
:101C600004460D46164603689B6913F0100F1CD0FE
:101C700023689A6912F0200F19D1B5F1FF3FF7D010
:101C8000FFF776FD801BA84201D8002DF0D1636CD0
:101C900043F020036364202384F84130002384F858
:101CA000423084F84030012020E000201EE0102265
:101CB000DA6123682025DD612046FFF7A4FF226852
:101CC000536823F0FF7323F48B3323F4FF7323F063
:101CD00001035360636C43F00403636484F8415070
:101CE000002384F8423084F84030012070BD70B584
:101CF00004460D46164623689B6913F0020F1DD15A
:101D0000324629462046FFF7AAFFC8B9B5F1FF3F82
:101D1000F1D0FFF72DFD801BA84201D8002DEAD19C
:101D2000636C43F020036364202384F84130002374
:101D300084F8423084F84030012000E0002070BD7B
:101D40000120FCE7F8B505460F4616461C462B68F1
:101D50009B6937EA03030CBF01230023B34218D168
:101D6000B4F1FF3FF3D0FFF703FD069BC01AA0427A
:101D700001D8002CEBD16B6C43F020036B64202363
:101D800085F84130002385F8423085F84030012045
:101D900000E00020F8BD000070B582B00446164691
:101DA0001D46184B00930023EAB2FFF73DFF079A48
:101DB00006992046FFF79BFFE8B9012D0ED1236855
:101DC000F6B29E62079B0093069B002240212046AC
:101DD000FFF7B8FF034678B101230DE02368320A0C
:101DE0009A62079A06992046FFF781FF38B923685F
:101DF000F6B29E62E6E70123184602B070BD0123E9
:101E0000FAE700BF0020008070B505460C46164674
:101E10002B689B6913F0200F1AD1324621462846C1
:101E2000FFF71DFFB0B9FFF7A3FC801BA04201D84C
:101E3000002CEDD16B6C43F020036B64202385F8FC
:101E40004130002385F8423085F84030012070BDD4
:101E50000020FCE70120FAE7002859D010B504461D
:101E600090F84130002B43D0242384F8413022687D
:101E7000136823F0010313606368226823F0706322
:101E800013612268936823F400439360E368012B95
:101E900033D0A368226843F404439360E368022BC1
:101EA00031D02268536843F0007343F40043536019
:101EB0002268D36823F40043D36023696269134323
:101EC000A169226843EA0123D360E369216A226899
:101ED0000B4313602268136843F001031360002072
:101EE0006064202384F84130206384F8420010BDF0
:101EF00080F84030FFF7C6FAB6E7A368226843F4DB
:101F000000439360CAE723684FF400625A60C8E751
:101F1000012070472DE9F04383B090F84150EDB2B5
:101F2000202D40F0A48090F84040012C00F0A480C7
:101F3000984617460E4604464FF0010980F8409037
:101F4000FFF716FC0546009019234A464FF400415E
:101F50002046FFF7F7FE002840F09080212384F808
:101F60004130102384F84230002363646762A4F890
:101F70002A806363638D9BB2FF2B0AD9FF222285DF
:101F8000424B00934FF0807331462046FFF74CFEE2
:101F900018E0628D92B222853C4B00934FF00073A3
:101FA000D2B231462046FFF73FFE0BE0628D92B27F
:101FB0002285002300934FF00073D2B231462046B1
:101FC000FFF732FE638D9BB2002B33D02A460A996D
:101FD0002046FFF78CFE002852D1626A23681278EF
:101FE0009A62636A01336362638D013B9BB26385CE
:101FF000238D013B9BB22385628D92B2002AE1D0F2
:10200000002BDFD100950A9B002280212046FFF79C
:1020100099FE002836D1638D9BB2FF2BC6D9FF22D3
:102020002285002300934FF0807331462046FFF74E
:10203000FBFDC7E72A460A992046FFF7E5FE03465F
:1020400010BB22682021D1612068426822F0FF7213
:1020500022F48B3222F4FF7222F00102426084F8F3
:102060004110002284F8422084F8402000E002233E
:10207000184603B0BDE8F0830223F9E70123F7E730
:102080000123F5E70123F3E70123F1E700200080B6
:102090002DE9F04782B0BDF82C7090F84150EDB2B8
:1020A000202D40F0BC800A9CDCB1D7B190F84040B4
:1020B000012C00F0B980984691460D4604464FF039
:1020C000010A80F840A0FFF753FB06460090192351
:1020D00052464FF400412046FFF734FE30B1012351
:1020E0009EE04FF400734364012399E0222384F8B7
:1020F0004130402384F84230002363640A9A6262CC
:102100006785636301960C9B009343464A462946C4
:102110002046FFF741FE70B9638D9BB2FF2B0FD9AC
:10212000FF222285444B00934FF0807329462046BE
:10213000FFF77AFD21E0002384F8403053466FE03A
:10214000628D92B222853C4B00934FF00073D2B265
:1021500029462046FFF768FD0FE0628D92B2228586
:10216000002300934FF00073D2B229462046FFF7B8
:102170005BFD638D9BB2002B34D000960C9B00223C
:1021800004212046FFF7DEFD00284FD123685A6A5C
:10219000636A1A70636A01336362238D013B9BB2E9
:1021A0002385628D013A92B26285628D92B2002AD5
:1021B000DFD0002BDDD100960C9B00228021204631
:1021C000FFF7C0FDA0BB638D9BB2FF2BC5D9FF22DB
:1021D0002285002300934FF0807329462046FFF7A5
:1021E00023FDC6E732460C992046FFF70DFE034655
:1021F00000BB22682021D1612068426822F0FF7272
:1022000022F48B3222F4FF7222F00102426084F841
:102210004110002284F8422084F8402000E002238C
:10222000184602B0BDE8F0870223F9E70123F7E77B
:102230000123F5E70123F3E70024008090F8413003
:10224000DBB2202B24D190F84030012B22D0012387
:1022500080F84030242380F841300268136823F06E
:10226000010313600268136823F48053136002684B
:102270001368194311600268136843F00103136087
:10228000202380F84130002380F840301846704702
:10229000022070470220704790F84130DBB2202BBB
:1022A00022D190F84030012B20D0012380F840301B
:1022B000242380F841300268136823F0010313607F
:1022C0000268136823F4706343EA01211160026815
:1022D000136843F001031360202380F8413000238A
:1022E00080F840301846704702207047022070473F
:1022F000024B186800F4C060704700BF00700040D7
:10230000B0F5007F0FD01F4B1B6803F4C063B3F51B
:10231000806F34D01B4A136823F4C06343F4806396
:10232000136000207047174B1B6803F4C063B3F5BC
:10233000007F22D0134A136823F4C06343F4007370
:102340001360114B1A68322303FB02F30F4AA2FBFE
:1023500003239B0C013300E0013B0A4A526912F44B
:10236000806F01D0002BF7D1064B5B6913F4806FAF
:1023700001D10020704703207047002070470020E3
:10238000704700BF007000404C00002083DE1B43FC
:1023900030B583B00546204B9B6D13F0805F0BD0AA
:1023A000FFF7A6FFB0F5007F17D0802D1FD82DD0E6
:1023B000702D2DD000211BE0174CA36D43F08053EE
:1023C000A365A36D03F080530193019BFFF790FF7A
:1023D000A36D23F08053A365E4E7802D03D9A02DDE
:1023E00003D9022104E0002102E0012100E00321E1
:1023F0000A4A136823F007030B431360136803F0C2
:1024000007038B4206D0012003B030BD0221EFE765
:102410000121EDE70020F7E7001002400020024014
:10242000284A9368D26802F0030213F00C030AD022
:102430000C2B06D0042B1FD0082B20D000200246E6
:1024400010E0012AF6D11F4A126812F0080F0CD1D1
:102450001C4AD2F89420C2F303221B4951F82220CF
:1024600043B100200C2B0DD07047164A1268C2F3FE
:102470000312F2E71046F5E714480022F2E7144889
:102480000022EFE70F4BDB6803F00303022B15D0AC
:10249000032B15D00B4BD868C0F302100130D9685C
:1024A000C1F3062102FB01F2B2FBF0F2D868C0F3DF
:1024B000416001304000B2FBF0F0D5E7034AE9E7A4
:1024C000034AE7E700100240504900080024F400E6
:1024D00000127A00002800F00083F0B583B00446B3
:1024E000AF4B9D6805F00C05DE6806F00306036837
:1024F00013F0100F5BD0E5B10C2D18D0A369002BA1
:1025000000F0BC80A64A136843F001031360FFF794
:102510002FF90746A24B1B6813F0020F40F09B8077
:10252000FFF726F9C01B0228F4D90323E1E2012EAC
:10253000E4D19B4B1B6813F0020F03D0A369002B5F
:1025400000F0CE82206A964B1B6813F0080F5CD017
:10255000934B1B6803F0F00398425DD8904B1A68C8
:1025600042F008021A601A6822F0F002216A0A4357
:102570001A605A6822F47F42E16942EA01225A60F5
:10258000002D61D0FFF74CFF854B9B68C3F303130D
:10259000844AD35C03F01F03D840834B1860834BFD
:1025A0001868FFF7A3F80346002840F0A2822368CA
:1025B00013F0010F00F08180082D75D00C2D71D023
:1025C0006368B3F5803F00F09780B3F5A02F00F06B
:1025D0009980734B1A6822F480321A601A6822F4C8
:1025E00080221A606368002B00F09980FFF7C0F822
:1025F00007466B4B1B6813F4003F5ED1FFF7B8F83A
:10260000C01B6428F5D9032373E2654BD3F89430DB
:102610001B0903F0F0039FE7FFF7BAFE002840F024
:1026200061825F4B1A6842F008021A601A6822F051
:10263000F002216A0A431A605A6822F47F42E16973
:1026400042EA01225A609DE7206AFFF7A1FE0028B6
:1026500098D001234DE2524B1A6842F008021A60EA
:102660001A6822F0F002216A0A431A605A6822F4BA
:102670007F42E16942EA01225A6098E7484A1368BA
:1026800023F001031360FFF773F80746444B1B6800
:1026900013F0020F8BD0FFF76BF8C01B0228F5D99F
:1026A000032326E2032E8BD13D4B1B6813F4003F1E
:1026B00003D06368002B00F01782236813F0020F29
:1026C0004FD0042D3CD00C2D38D0E368002B78D0AF
:1026D000334A136843F480731360FFF749F80646E2
:1026E0002F4B1B6813F4806F62D1FFF741F8801BFA
:1026F0000228F5D90323FCE1294A136843F4803307
:1027000013606FE703F18043A3F53C331A6842F48A
:1027100080221A601A6842F480321A6062E7FFF77A
:1027200027F807461E4B1B6813F4003FC5D0FFF780
:102730001FF8C01B6428F5D90323DAE1022EC4D1A7
:10274000174B1B6813F4806F03D0E368002B00F075
:10275000CD81134A536823F0F853216943EA01639A
:102760005360236813F0080F56D06369002B3CD0E8
:102770000B4AD2F8943043F00103C2F89430FEF7CC
:10278000F7FF0646064BD3F8943013F0020F43D1FF
:10279000FEF7EEFF801B0228F4D90323A9E100BF56
:1027A00000100240804900084C0000205400002026
:1027B000B84A536823F0F853216943EA0163536030
:1027C000CFE7B44A136823F480731360FEF7D0FF99
:1027D0000646B04B1B6813F4806FC2D0FEF7C8FFEB
:1027E000801B0228F5D9032383E1AA4AD2F894304A
:1027F00023F00103C2F89430FEF7BAFF0646A54B5A
:10280000D3F8943013F0020F06D0FEF7B1FF801B0F
:102810000228F4D903236CE1236813F0040F7AD063
:102820009C4B9B6D13F0805F0BD19A4B9A6D42F0DD
:1028300080529A659B6D03F080530193019B0126A2
:1028400000E00026944B1B6813F4807F26D0A36819
:10285000012B37D0052B3DD08E4BD3F8902022F0A2
:102860000102C3F89020D3F8902022F00402C3F8AC
:102870009020A368002B3BD0FEF77AFF0746854BDC
:10288000D3F8903013F0020F44D1FEF771FFC01B54
:1028900041F288339842F2D903232AE17E4A136831
:1028A00043F480731360FEF763FF07467A4B1B689F
:1028B00013F4807FCBD1FEF75BFFC01B0228F5D954
:1028C000032316E1734AD2F8903043F00103C2F8B3
:1028D0009030CEE76F4BD3F8902042F00402C3F85B
:1028E0009020D3F8902042F00102C3F89020C0E776
:1028F000FEF73EFF0746674BD3F8903013F0020F08
:1029000008D0FEF735FFC01B41F288339842F2D958
:102910000323EEE06EBBA36A002B00F0E980022BDC
:102920002DD00C2D00F0EE805A4B1A6822F08072E8
:102930001A601B6813F0205F04D1564AD36823F055
:102940000303D360534AD36823F0887323F480339E
:10295000D360FEF70DFF04464E4B1B6813F0007F5B
:1029600000F0B980FEF704FF001B0228F4D903230E
:10297000BFE0484A936D23F080539365CBE7454B06
:10298000DB6803F00301E26A91420FD00C2D00F0E6
:10299000B380404B1B6813F0806F40F0AF803D4B1D
:1029A0001B6813F0805F2DD00123A2E003F07002BA
:1029B000216B0139B2EB011FE8D103F4FE42616BD8
:1029C000B2EB012FE2D103F40031A26B073A18BF3A
:1029D00001229142DAD103F4C001E26B5208013ABC
:1029E000B1EB425FD2D103F0C063226C5208013ACE
:1029F000B3EB426FCAD1274B1B6813F0007F51D055
:102A0000002376E0234A136823F080731360FEF7F7
:102A1000AFFE05461F4B1B6813F0007F06D0FEF784
:102A2000A7FE401B0228F5D9032362E0194AD368A8
:102A30001A491940E36A206B013843EA0013606BBE
:102A400043EA0023E06B4008013843EA4053206C1E
:102A50004008013843EA4063A06B000943EA404361
:102A60000B43D360136843F080731360D36843F063
:102A70008073D360FEF77CFE0446064B1B6813F0A0
:102A8000007F0DD1FEF774FE001B0228F5D9032349
:102A90002FE000BF00100240007000408C809DF9C4
:102AA000002326E0184B1A6842F080721A60DA6838
:102AB00042F08072DA60FEF75BFE044604E0FEF747
:102AC00057FE001B02281BD80F4B1B6813F0007F1A
:102AD000F5D000230DE000230BE0012318467047DA
:102AE000012306E0012304E0012302E0012300E0CA
:102AF0000023184603B0F0BD0123FAE70123F8E7ED
:102B00000323F6E70123F4E700100240002800F059
:102B10009B8070B504464E4B1B6803F007038B4245
:102B20000CD24B4A136823F007030B43136013685E
:102B300003F007038B4201D0012070BD0D462368CE
:102B400013F0010F39D06368032B09D0022B26D074
:102B500063BB404A126812F0020F06D10120ECE775
:102B60003C4A126812F0007F70D03A498A6822F01D
:102B7000030213438B60FEF7FBFD0646354B9B6853
:102B800003F00C036268B3EB820F16D0FEF7F0FD82
:102B9000801B41F288339842F0D90320CDE72D4ABB
:102BA000126812F4003FE0D10120C6E7294A1268FA
:102BB00012F4806FD9D10120BFE7236813F0020F10
:102BC00006D0244A936823F0F003A1680B43936076
:102BD0001F4B1B6803F00703AB420CD91C4A136858
:102BE00023F007032B431360136803F00703AB4282
:102BF00001D00120A1E7236813F0040F06D0154A85
:102C0000936823F4E063E1680B439360236813F057
:102C1000080F07D00F4A936823F46053216943EAF1
:102C2000C1039360FFF7FCFB0A4B9B68C3F30313DC
:102C3000094AD35C03F01F03D840084B1860084BC7
:102C40001868FEF753FD78E701207047012074E70C
:102C50000020024000100240804900084C00002083
:102C600054000020014B1868704700BF4C00002042
:102C700008B5FFF7F7FF054B9B68C3F30223044A2F
:102C8000D35C03F01F03D84008BD00BF0010024012
:102C90009049000808B5FFF7E5FF054B9B68C3F3B3
:102CA000C223044AD35C03F01F03D84008BD00BF11
:102CB0000010024090490008F8B55A4BDB6813F049
:102CC000030F18D0574BDB6803F0030302689342ED
:102CD00002D001252846F8BD002A00F0A080514B03
:102CE000DB68C3F3021301334268934201D001252C
:102CF000F0E700251AE00368022B59D0032B5ED0C1
:102D0000012B01D001250FE0464A126812F0020F94
:102D100061D0444DEA6822F073024468013C43EA02
:102D200004131343EB600025002DD3D10F46044656
:102D30003C4A136823F080631360FEF719FD0646D2
:102D4000384B1B6813F0006F05D0FEF711FD801B98
:102D50000228F5D90325002DBCD1002F3DD13149E2
:102D60000B6923F41F3323F44073A068E26812094F
:102D7000520442EA002213430B612A4A136843F0CB
:102D800080631360FEF7F4FC0646264B1B6813F0C5
:102D9000006F05D1FEF7ECFC801B0228F5D9032556
:102DA000002D97D11F4A1369A1690B43136191E765
:102DB0001C4A126812F4806FABD10125B4E7194A9E
:102DC000126812F4003FA4D1164A126812F4802F40
:102DD0009FD10125A8E70125A6E7012F0FD01148B3
:102DE000026922F0C06222F4FE42A16863695B08B6
:102DF000013B5B0643EA012313430361BDE7094836
:102E0000026922F4C00222F4FE42A16823695B0831
:102E1000013B5B0543EA012313430361ADE7012551
:102E200058E700BF00100240F8B5514BDB6813F0C3
:102E3000030F18D04E4BDB6803F003030268934284
:102E400002D001252846F8BD002A00F08E80484BAC
:102E5000DB68C3F3021301334268934201D00125BA
:102E6000F0E700251AE00368022B59D0032B5ED04F
:102E7000012B01D001250FE03D4A126812F0020F2C
:102E800061D03B4DEA6822F073024468013C43EA9A
:102E900004131343EB600025002DD3D10F460446E5
:102EA000334A136823F080531360FEF761FC064633
:102EB0002F4B1B6813F0005F05D0FEF759FC801BF9
:102EC0000228F5D90325002DBCD1002F3DD128497A
:102ED0004B6923F41F3323F44073A068E26812099E
:102EE000520442EA002213434B61214A136843F023
:102EF00080531360FEF73CFC06461D4B1B6813F025
:102F0000005F05D1FEF734FC801B0228F5D90325AC
:102F1000002D97D1164A536961690B43536191E7BC
:102F2000134A126812F4806FABD10125B4E7104A3E
:102F3000126812F4003FA4D10D4A126812F4802FD7
:102F40009FD10125A8E70125A6E70948426922F09B
:102F5000C06222F4FE42A16823695B08013B5B0664
:102F600043EA012313434361BFE701256AE700BF3A
:102F7000001002402DE9F04182B00446036813F4CA
:102F8000006F2FD0436EB3F5800F25D008D9B3F56D
:102F9000000F10D0B3F5400F40F09980002610E0EC
:102FA000002B40F0948000210430FFF785FE064698
:102FB0003EB1374618E05E4AD36843F48033D360AD
:102FC00000265B4AD2F8883023F44003616E0B433D
:102FD000C2F88830002707E000212030FFF724FFE7
:102FE0000646E5E700273E46236813F4805F15D0C8
:102FF000A36EB3F1807F7AD06CD9B3F1007F70D02B
:10300000B3F1407F7AD1002E7BD1494AD2F8883083
:1030100023F04073A16E0B43C2F88830236813F489
:10302000003F00F08E80424B9B6D13F0805F6AD1B1
:103030003F4B9A6D42F080529A659B6D03F080532E
:103040000193019B4FF001083A4A136843F48073DF
:103050001360FEF78DFB0546364B1B6813F4807F2B
:1030600005D1FEF785FB401B0228F5D90326002E6B
:1030700062D12F4BD3F8903013F4407316D0D4F8AC
:1030800084209A4212D02A4AD2F8903023F4407316
:10309000D2F8901041F48031C2F89010D2F890101C
:1030A00021F48031C2F89010C2F8903013F0010F73
:1030B0002CD1002E40F043811D4AD2F8903023F4E9
:1030C0004073D4F884100B43C2F8903035E00127E8
:1030D0003E4689E793B90021201DFFF7EDFD064626
:1030E00091E7134AD36843F48033D3608BE7002120
:1030F00004F12000FFF798FE064684E701273E46CC
:103100008CE737468AE74FF000089DE7FEF730FB73
:103110000546074BD3F8903013F0020FC9D1FEF7E4
:1031200027FB401B41F288339842F2D90326C0E7BF
:1031300000100240007000403746B8F1000F40F028
:103140000081236813F0010F08D09D4AD2F888301F
:1031500023F00303A16B0B43C2F88830236813F0FC
:10316000020F08D0964AD2F8883023F00C03E16BA6
:103170000B43C2F88830236813F0040F08D0904A3C
:10318000D2F8883023F03003216C0B43C2F888302A
:10319000236813F0080F08D0894AD2F8883023F04A
:1031A000C003616C0B43C2F88830236813F0100F22
:1031B00008D0834AD2F8883023F44073A16C0B43C3
:1031C000C2F88830236813F0200F08D07C4AD2F868
:1031D000883023F44063E16C0B43C2F888302368E5
:1031E00013F4007F08D0764AD2F8883023F44023C5
:1031F000E16D0B43C2F88830236813F4806F08D068
:103200006F4AD2F8883023F44013216E0B43C2F882
:103210008830236813F0400F08D0694AD2F888300C
:1032200023F44053216D0B43C2F88830236813F018
:10323000800F08D0624AD2F8883023F44043616D91
:103240000B43C2F88830236813F4807F08D05C4AAF
:10325000D2F8883023F44033A16D0B43C2F8883094
:10326000236813F4005F0FD0554AD2F8883023F05A
:103270004063E16E0B43C2F88830E36EB3F1006F38
:1032800065D0B3F1806F67D0236813F4002F0FD09F
:103290004B4AD2F8883023F04063216F0B43C2F8C9
:1032A0008830236FB3F1006F5ED0B3F1806F60D0D0
:1032B000236813F4802F0FD0414AD2F8883023F0CE
:1032C0004063616F0B43C2F88830636FB3F1006FE6
:1032D00057D0B3F1806F59D0236813F4804F0FD0CB
:1032E000374AD2F8883023F04053A16F0B43C2F81D
:1032F0008830A36FB3F1805F50D0B3F1005F55D039
:10330000236813F4004F08D02D4AD2F8883023F0F8
:103310008043E16F0B43C2F88830236813F4803F89
:1033200009D0274AD2F8883023F00043D4F880101F
:103330000B43C2F88830384602B0BDE8F08137460A
:10334000FBE61F4A936D23F080539365F9E6D3683B
:1033500043F48013D36097E70121201DFFF7ACFCF5
:10336000002891D007468FE7D36843F48013D360D9
:103370009EE70121201DFFF79FFC002898D00746FB
:1033800096E7D36843F48013D360A5E70121201D9D
:10339000FFF792FC00289FD007469DE70221201DE1
:1033A000FFF78AFC0028ABD00746A9E7022104F109
:1033B0002000FFF739FD0028A2D00746A0E700BF94
:1033C000001002402DE9F04383B004460F46164634
:1033D0001D46FEF7CDF90A9B181A00EB0508FEF70B
:1033E000C7F981462A4B1B68C3F3CB3308FB03F3B1
:1033F000019323689B6837EA03030CBF0123002372
:10340000B34240D0B5F1FF3FF3D0FEF7B1F9A0EBE6
:10341000090040450AD2B8F1000F07D0019B0BB953
:103420004FF00008019B013B0193E2E722685368DB
:1034300023F0E00353606368B3F5827F0BD0A36A87
:10344000B3F5005F14D0012384F85D30002384F8C5
:103450005C30032018E0A368B3F5004F02D0B3F549
:10346000806FECD12268136823F040031360E6E715
:103470002268136823F4005313602268136843F42E
:1034800000531360DFE7002003B0BDE8F08300BF06
:103490004C0000202DE9F04383B006460C4615464B
:1034A0001F46FEF765F90A9B181A00EB0708FEF79E
:1034B0005FF981462D4B1B6803EB8303C3EBC3030A
:1034C0001B0D08FB03F3019302E0B7F1FF3F0BD1A3
:1034D000326893682340AB4244D0B4F5C06FF4D156
:1034E000002DF2D1137BF0E7FEF742F9A0EB0900C3
:1034F00040450AD2B8F1000F07D0019B0BB94FF03D
:103500000008019B013B0193E2E73268536823F016
:10351000E00353607368B3F5827F0BD0B36AB3F5F1
:10352000005F14D0012386F85D30002386F85C30FC
:10353000032018E0B368B3F5004F02D0B3F5806FF5
:10354000ECD13268136823F040031360E6E7326879
:10355000136823F4005313603268136843F4005374
:103560001360DFE7002003B0BDE8F0834C000020CB
:1035700070B582B004460D46164600920B460022F6
:103580004FF4C051FFF786FFB8B900962B460022D2
:1035900080212046FFF716FFB8B900962B4600227F
:1035A0004FF4C0612046FFF775FF034650B1236E0C
:1035B00043F020032366032304E0236E43F020033B
:1035C00023660323184602B070BD236E43F0200328
:1035D00023660323F6E700286AD010B50446436A41
:1035E00033B94368B3F5827F05D00023C36102E09D
:1035F0000023036143610023A36294F85D30002B34
:103600004DD0022384F85D302268136823F0400314
:103610001360E368B3F5E06F47D90022B3F5706F2C
:1036200004D0B3F5E06F01D00023A362636803F414
:103630008273A16801F404410B43216901F0020186
:103640000B43616901F001010B43A16901F40071B1
:103650000B43E16901F038010B43216A01F080015D
:103660000B43A16A01F4005120680B430360638B94
:1036700003F00403616A01F010010B43616B01F078
:1036800008010B43E16801F470610B4321681343A7
:103690004B6000202066012384F85D3010BD84F863
:1036A0005C302046FDF75CFFABE74FF48052B5E796
:1036B000012070472DE9F04182B090F85C40012C68
:1036C00000F0E9801E46154688460446012380F82E
:1036D0005C30FEF74DF8074694F85D20D2B2012A1F
:1036E00009D00220012384F85D30002384F85C3087
:1036F00002B0BDE8F081B8F1000F00F0BE80002DEF
:1037000000F0BD80032384F85D3000232366C4F8F5
:103710003880A587E5872364A4F84430A4F84630B0
:103720002365E364A368B3F5004F1CD023681A68CF
:1037300012F0400F03D11A6842F040021A60E368A9
:10374000B3F5E06F38D963680BB1012D20D1A26BBE
:1037500023681288DA60A36B0233A363E38F013B13
:103760009BB2E38714E02268136823F040031360E0
:103770002268136843F480431360D7E7FDF7F8FF2E
:10378000C01BB04202D3B6F1FF3F7AD1002E7AD0EF
:10379000E38F9BB2002B5BD023689A6812F0020F74
:1037A000ECD0A26B1288DA60A36B0233A363E38FC1
:1037B000013B9BB2E387EBE763680BB1012D30D18E
:1037C000E38F9BB2012B0BD9A26B23681288DA60BE
:1037D000A36B0233A363E38F023B9BB2E38720E03A
:1037E000A26B236812781A73A36B0133A363E38F70
:1037F000013B9BB2E38714E0A36B1B781373A36BAD
:103800000133A363E38F013B9BB2E38709E0FDF73C
:10381000AFFFC01BB04202D3B6F1FF3F35D1002E3F
:1038200035D0E38F9BB29BB12268936813F0020FEF
:10383000EDD0E38F9BB2012BDED9A36B1B88D36045
:10384000A36B0233A363E38F023B9BB2E387E8E7FA
:103850003A4631462046FFF78BFE08B12023236607
:10386000A36833B901932368DA6801929B680193D6
:10387000019B236E6BB9002034E7012032E7012061
:1038800030E703202EE703202CE703202AE703205C
:1038900028E7012026E702202AE700002DE9D84882
:1038A0000446016883680269134342691343C2698D
:1038B000134308689B4A024013430B602268536815
:1038C00023F44053E1680B435360A1692268964B8F
:1038D0009A4201D0236A1943936823F430630B435F
:1038E00093602368914A934227D0914A934238D0FB
:1038F000904A93424ED0904A934261D08F4A93426D
:1039000074D0894A934200F08A80102286498B4203
:1039100000F0AA80E369B3F5004F00F0D880082AD0
:1039200000F24581DFE812F015012C01130143017B
:103930002F01430143014301320102F55842D2F8FD
:10394000882002F00302032A09D8DFE802F002040B
:1039500081060122DAE70422D8E70822D6E71022FE
:10396000D4E702F5E632D2F8882002F00C020C2AE5
:103970000ED8DFE802F0070D0D0D090D0D0D6F0DCE
:103980000D0D0B000022C1E70422BFE70822BDE7AE
:103990001022BBE702F5E432D2F8882002F03002B0
:1039A000102A09D005D9202A56D0302A06D108225B
:1039B000ACE71AB90022A9E70422A7E71022A5E77D
:1039C00002F5E232D2F8882002F0C002402A09D083
:1039D00005D9802A42D0C02A06D1082296E71AB912
:1039E000002293E7042291E710228FE702F5E032EC
:1039F000D2F8882002F44072B2F5807F0BD007D94C
:103A0000B2F5007F2CD0B2F5407F06D108227DE7C9
:103A10001AB900227AE7042278E7102276E702F545
:103A2000C832D2F8882002F44062B2F5806F0BD021
:103A300007D9B2F5006F15D0B2F5406F06D1082254
:103A400064E71AB9002261E704225FE710225DE70C
:103A500002225BE7022259E7022257E7022255E7DA
:103A6000022253E7022251E7082A00F29280DFE89F
:103A700002F0089010900D90909005004FF40040D7
:103A800008E0FFF7F5F828B9002074E0FEF7C8FC5D
:103A9000F9E72B48626802EB420383427BD8B0EB24
:103AA000023F7AD80023070E0602500816EB000BDF
:103AB00047F1000C58466146FCF78AFBA0F54072BE
:103AC000204B9A426BD82368D860002053E0082A24
:103AD00067D8DFE802F007210566246666663900CC
:103AE000174803E0FFF7C4F800285CD06268530869
:103AF00003EB4003B3FBF2F39BB2A3F110014FF6CB
:103B0000EF72914251D823F00F02C3F342031343E3
:103B10002268D36000202EE0FFF7BCF8E4E7FEF750
:103B20007FFCE1E7F369FFEF0080004000380140CF
:103B30000044004000480040004C0040005000405D
:103B40000024F400FFFC0F004FF40040CEE71B48B8
:103B500002E0FFF78DF860B3636800EB5300B0FB41
:103B6000F3F080B2A0F110024FF6EF739A4222D820
:103B70002368D8600020002323666366BDE8D888E8
:103B8000FFF788F8E7E7FEF74BFCE4E74FF4004067
:103B9000E2E70120EFE70120EDE70120EBE701205C
:103BA000E9E70120E7E70020E5E70120E3E701205E
:103BB000E1E70020DFE70120DDE700BF0024F4009B
:103BC000436A13F0010F06D00268536823F40033F0
:103BD000816A0B435360436A13F0020F06D00268F8
:103BE000536823F48033C16A0B435360436A13F074
:103BF000040F06D00268536823F48023016B0B4343
:103C00005360436A13F0080F06D00268536823F428
:103C10000043416B0B435360436A13F0100F06D00F
:103C20000268936823F48053816B0B439360436A6B
:103C300013F0200F06D00268936823F40053C16B81
:103C40000B439360436A13F0400F0AD00268536835
:103C500023F48013016C0B435360036CB3F5801F96
:103C60000BD0436A13F0800F06D00268536823F428
:103C70000023816C0B43536070470268536823F440
:103C8000C003416C0B435360EBE72DE9F041044660
:103C90000F4616469846069D2368DB6937EA0303FC
:103CA0000CBF01230023B3423AD1B5F1FF3FF3D05B
:103CB000FDF75EFDA0EB0800A8421FD8F5B1236810
:103CC0001A6812F0040FE7D0DA6912F4006FE3D03B
:103CD0004FF400621A622268136823F4D0731360F1
:103CE0002268936823F00103936020236367A3672E
:103CF000E367002384F87030032012E02268136821
:103D000023F4D07313602268936823F00103936057
:103D100020236367A367002384F87030032000E04A
:103D20000020BDE8F0812DE9F04182B01E46436FCE
:103D3000202B55D104460D469046002955D0002A27
:103D400055D090F87030012B53D0012380F870309B
:103D50000023C36721234367FDF70AFD0746A4F844
:103D60005080A4F85280A368B3F5805F05D04FF06F
:103D70000008002384F8703013E0236913B14FF07A
:103D80000008F6E7A8460025F3E738F8023B22686A
:103D9000C3F308031385B4F85230013B9BB2A4F877
:103DA0005230B4F852309BB273B100963B460022B9
:103DB00080212046FFF769FFE8B9002DE5D0236890
:103DC00015F8012B1A85E6E700963B4600224021B4
:103DD0002046FFF75AFF034678B92022626700E0C9
:103DE0000223184602B0BDE8F0810123F9E7012360
:103DF000F7E70223F5E70323F3E70323F1E72DE9D0
:103E0000F04383B01E46836F202B7BD104460D46C2
:103E1000904600297AD0002A7AD090F87030012B91
:103E200078D0012380F870300023C3672223836792
:103E3000FDF79EFC0746A4F85880A4F85A80A368B2
:103E4000B3F5805F06D0A3B9226972B9FF22A4F846
:103E50005C2014E0226922B940F2FF12A4F85C2031
:103E60000DE0FF22A4F85C2009E07F22A4F85C208A
:103E700005E0B3F1805F0DD00022A4F85C20B4F817
:103E80005C80B3F5805F0FD04FF00009002384F809
:103E900070301DE022691AB97F22A4F85C20EEE799
:103EA0003F22A4F85C20EAE7236913B14FF0000930
:103EB000ECE7A9460025E9E723689B8C08EA0303A1
:103EC00029F8023BB4F85A30013B9BB2A4F85A30AF
:103ED000B4F85A309BB28BB100963B4600222021A9
:103EE0002046FFF7D2FEB8B9002DE5D023689A8CA2
:103EF0005FFA88F3134005F8013BE3E72023A3674B
:103F0000002000E0022003B0BDE8F0830120FAE7C2
:103F10000120F8E70220F6E70320F4E730B583B08C
:103F200004460023C367FDF723FC054623681B688E
:103F300013F0080F0CD123681B6813F0040F15D180
:103F400020236367A367002084F8700003B030BDAE
:103F50006FF07E430093034600224FF40011204689
:103F6000FFF793FE0028E6D00320EFE76FF07E43D3
:103F700000932B4600224FF480012046FFF785FE78
:103F80000028DDD00320E1E768B310B50446436F95
:103F900003B3242363672268136823F001031360CB
:103FA0002046FFF77BFC012813D0636ABBB9226867
:103FB000536823F4904353602268936823F02A03E4
:103FC00093602268136843F0010313602046FFF7F3
:103FD000A5FF10BD80F87030FDF7F6FAD9E720464E
:103FE000FFF7EEFDE3E7012070470000DFF834D073
:103FF000FDF758FB002103E00B4B5B5843500431A5
:104000000A480B4B42189A42F6D30A4A02E00023B0
:1040100042F8043B084B9A42F9D300F017F8FDF739
:1040200069F9FEE700800120E8490008000000204F
:10403000C0000020C0000020F00D0020FEE70000BE
:10404000014B1868704700BF5800002070B50D4E36
:104050000D4CA41BA4100025A54209D10B4E0C4CFD
:1040600000F026FCA41BA4100025A54205D170BDBC
:1040700056F8253098470135EEE756F82530984731
:104080000135F2E7D8490008D8490008D8490008A6
:10409000DC49000802440346934200D1704703F80C
:1040A000011BF9E70EB400B59CB01DAB0290069061
:1040B0006FF00041094807910491094953F8042B16
:1040C00005910068019302A900F066F8029B0022A6
:1040D0001A701CB05DF804EB03B070475800002064
:1040E0000802FFFF2DE9F0478E689E4282460C468B
:1040F0009046994637D88A8912F4906F31D0256856
:1041000009696F1A6569022305EB450595FBF3F50F
:1041100009F101033B449D4238BF1D46530530D58C
:10412000294600F02BFB064650B90C23CAF8003094
:10413000A38943F04003A3814FF0FF30BDE8F0872F
:104140003A46216900F0A8FAA38923F4906343F06A
:104150008003A381266165613E44ED1B2660A56056
:104160004E464E4500D94E4632464146206800F044
:104170009EFAA3689B1BA36023681E442660002050
:10418000DCE72A4600F054FB06460028E2D121690C
:10419000504600F0A5FAC8E72DE9F04F1D468B897F
:1041A0001F069DB080460C4616460FD50B696BB9AD
:1041B000402100F0E3FA2060206128B90C23C8F800
:1041C00000304FF0FF30C8E04023636100230993C3
:1041D00020238DF8293030238DF82A3003954FF0B5
:1041E000010B37463D4615F8013B0BB1252B3ED15F
:1041F000B7EB060A0BD05346324621464046FFF73E
:1042000071FF013000F0A480099B534409933B786F
:10421000002B00F09D8000234FF0FF32CDE90523F5
:10422000049307938DF853301A932F46052217F8FD
:10423000011B5048FCF74CF9049BD0B9D90644BF88
:1042400020228DF853201A0744BF2B228DF85320CB
:104250002A782A2A15D0079A2F4600200A2539469F
:1042600011F8013B303B092B4DD9B8B10FE02F4677
:10427000B8E7404A801A0BFA00F0184304903D4614
:10428000D3E7039A111D12680391002A01DB0792FC
:1042900004E0524243F00203079204933B782E2B32
:1042A0000CD17B782A2B33D1039B1A1D1B680392F8
:1042B000002BB8BF4FF0FF33023705932E4D3978EE
:1042C00003222846FCF704F938B14023401B03FAC7
:1042D00000F0049B034301370493397827488DF895
:1042E000281006227E1CFCF7F3F8002838D0244B57
:1042F00013BB039B073323F0070308330393099B86
:104300004B4409936DE705FB023201200F46A6E7F7
:1043100000230137059319460A25384610F8012B6A
:10432000303A092A03D9002BC8D00591C6E705FB0E
:10433000012101230746F0E703AB00932246114B0E
:1043400004A94046AFF30080B0F1FF3F8146D6D1CB
:10435000A3895B063FF535AF09981DB0BDE8F08F26
:1043600003AB00932246074B04A9404600F082F8B5
:10437000EAE700BF9C490008A2490008A6490008D6
:1043800000000000E54000082DE9F04791461F4677
:104390008A680B69DDF820809342B8BF1346C9F8DC
:1043A000003091F8432006460C4612B10133C9F89B
:1043B00000302368990642BFD9F800300233C9F8AB
:1043C0000030256815F0060507D104F1190AE368E5
:1043D000D9F800209B1AAB4228DC94F843302268BD
:1043E000003318BF012392062DD404F1430239464D
:1043F0003046C047013020D02368E568D9F8002056
:1044000003F00603042B08BFAD1AA36822690CBF92
:1044100025EAE57500259342C4BF9B1AED184FF0BD
:1044200000091A344D451AD1002008E001235246F4
:1044300039463046C047013003D14FF0FF30BDE868
:10444000F0870135C3E7E1185A1C302081F843009A
:10445000224494F8451082F843100233C5E7012343
:10446000224639463046C0470130E6D009F10109FD
:10447000D8E700002DE9F04301F1430C0C46097E1A
:1044800085B06E291746064698460C9A00F0B38010
:1044900022D8632936D00AD8002900F0B9805829DB
:1044A00000F0838004F1420584F8421032E0642970
:1044B00001D06929F6D120681368050603F10401CB
:1044C0002AD51B681160002B03DA2D225B4284F889
:1044D00043206F480A2239E0732900F09D8008D8F4
:1044E0006F2920D07029DDD1236843F02003236099
:1044F00003E0752917D07829D4D1782384F8453082
:10450000644855E01368191D1B68116004F14205E9
:1045100084F8423001238CE01B68116010F0400FDA
:1045200018BF1BB2CFE713682568181D1060280656
:1045300001D51B6802E06806FBD51B8854486F292B
:1045400014BF0A220822002184F843106568A56080
:10455000002DC0F29580216821F004012160002B1C
:104560003DD1002D40F08E806546082A0BD123688E
:10457000DB0708D5236962689A42DEBF302305F85D
:10458000013C05F1FF35ACEB05032361CDF800805C
:104590003B4603AA21463046FFF7F6FE01304DD1D7
:1045A0004FF0FF3005B0BDE8F083394884F845107E
:1045B000136821681D1D1B6815600A060BD5CA0704
:1045C00044BF41F0200121601BB9226822F0200283
:1045D00022601022B7E74D0648BF9BB2EFE7654661
:1045E000B3FBF2F102FB1133C35C05F8013D0B464E
:1045F0000029F5D1B9E7136825686169181D1060B5
:1046000028061B6801D5196002E06A06FBD51980EF
:10461000002323616546B9E71368191D11601D6801
:10462000626800212846FBF753FF08B1401B606019
:1046300063682361002384F84330A7E723692A468F
:1046400039463046C0470130AAD023689B0713D4AF
:10465000E068039B9842B8BF1846A3E701234A4687
:1046600039463046C04701309AD00135E368039A95
:104670009B1AAB42F2DCEBE7002504F11909F5E7E0
:10468000002BACD1037884F8423004F142056CE78A
:10469000AD490008BE49000810B5431E0A449142C6
:1046A00000D110BD11F8014B03F8014FF7E7884224
:1046B00010B501EB020307D8421E99420AD011F847
:1046C000014B02F8014FF8E78342F5D98118D21A5D
:1046D000D34200D110BD13F8014D01F8014DF7E7A9
:1046E00038B50546002945D051F8043C0C1F002B75
:1046F000B8BFE41800F0D2F81F4A1368104633B967
:10470000636014602846BDE8384000F0C8B8A34292
:104710000CD921686218934204BF1A685B68636011
:1047200004BF521822600460ECE713465A680AB1CD
:10473000A242FAD919685818A0420BD12068014446
:10474000581882421960DDD1106852685A600144DD
:104750001960D7E702D90C232B60D3E72068211812
:104760008A4204BF11685268626004BF0918216060
:104770005C60C7E738BD00BF4401002070B5CD1CA8
:1047800025F0030508350C2D38BF0C25002D0646F5
:1047900001DBA94203D90C233360002070BD00F077
:1047A0007DF8214A1468214691B9204C23681BB931
:1047B000304600F063F820602946304600F05EF88D
:1047C000431C24D10C233360304600F068F8E4E742
:1047D0000B685B1B18D40B2B0FD90B60CD50CC187A
:1047E000304600F05CF804F10B00231D20F00700B8
:1047F000C31AD3D05A42E250D0E78C424B6816BF5E
:10480000636013600C46EBE70C464968CCE7C41CB8
:1048100024F00304A04205D0211A304600F02EF8FF
:104820000130CFD02560DBE74401002048010020A3
:10483000F8B5074614460E4621B91146BDE8F840C2
:10484000FFF79CBF22B9FFF74BFF25462846F8BD6E
:1048500000F026F8A0420FD221463846FFF78EFF1F
:1048600005460028F2D031462246FFF715FF3146B3
:104870003846FFF735FFE9E73546E7E738B5064C38
:104880000023054608462360FCF7EEFE431C02D1D8
:10489000236803B12B6038BDEC0D002070477047D2
:1048A00051F8043C181F002BBCBF0B58C0187047B0
:1048B000F8B500BFF8BC08BC9E467047F8B500BF0D
:0848C000F8BC08BC9E467047DD
:1048C8000F0180961180FFB103012C2DB203012C3A
:1048D8002DB306012C2D012C2DB40107C003A20213
:1048E80084C101C5C2020A00C3028A2AC4028AEE30
:1048F800C5010E20003A0105022A040000007F2BA2
:10490800040000007F00000004E010021C071237BA
:1049180032292D29252B3900010310E110031D0729
:10492800062E2C292D2E2E373F0000021013800A48
:104938002980640007010000003F200001350000C5
:10494800AA01000112000000A0860100400D03002A
:10495800801A060000350C0040420F0080841E00BB
:1049680000093D0000127A000024F40000366E01B0
:104978000048E801006CDC020000000000000000B4
:1049880001020304060708090000000001020304ED
:1049980025640A00232D302B2000686C4C006566C6
:1049A8006745464700303132333435363738394178
:1049B800424344454600303132333435363738398E
:0849C800616263646566000092
:0849D00030B8FF7F0100000078
:0849D800B50100080000000019
:0849E000910100080000000035
:1049E800050301020705000008000000320000006E
:1049F800040000000A0000005A0000000A0000003D
:104A080002000000020000000B000000050000008A
:104A18003C000000050000001E00000078000000B7
:104A280001000000010000000100000000093D0035
:104A380001000000100000005C00002000000000E1
:104A4800000000000000000000000000000000005E
:104A5800000000000000000000000000000000004E
:104A6800000000000000000000000000000000003E
:104A7800000000000000000000000000000000002E
:104A8800000000000000000000000000000000001E
:104A9800000000000000000000000000000000000E
:0400000508003FEDC3
:00000001FF
